:100000000C942A000C9447000C9447000C94470071
:100010000C9447000C9447000C9447000C94470044
:100020000C9447000C9447000C9447000C94470034
:100030000C9447000C9447000C9447000C94470024
:100040000C9447000C9447000C9447000C94470014
:100050000C94470011241FBECFE5D8E0DEBFCDBF12
:1000600010E0A0E6B0E0E0EAF5E102C005900D92F4
:10007000A43AB107D9F710E0A4EAB0E001C01D929C
:10008000A43AB107E1F70E946F020C94CE0A0C94D7
:1000900000002F923F924F925F927F928F929F9299
:1000A000AF92BF92CF92DF92EF92FF920F931F9386
:1000B000CF93DF932B01D42F722E1801FC01808087
:1000C0009180A280B380FB01C080D180E280F38068
:1000D0004230E8F08C010C5F1F4FC1E0C501B40154
:1000E0002AE030E040E050E00E94480ADC01CB0109
:1000F000F80141915191619171918F014A015B0128
:10010000880E991EAA1EBB1ECF5FCD1739F7F1E0EE
:10011000F715E8F482010C5F1F4FC1E0C701B6017B
:100120002AE030E040E050E00E94480ADC01CB01C8
:10013000F80141915191619171918F016A017B01A7
:10014000C80ED91EEA1EFB1ECF5FC71539F7D701AF
:10015000C601880D991DAA1DBB1DF10180839183E5
:10016000A283B3830E942909DF91CF911F910F9140
:10017000FF90EF90DF90CF90BF90AF909F908F90C7
:100180007F905F904F903F902F9008952F923F92D5
:100190004F925F927F928F929F92AF92BF92CF9237
:1001A000DF92EF92FF920F931F93CF93DF932B0178
:1001B000D42F722E1801FC01C080D180E280F38020
:1001C000FB0180809180A280B3804230E8F08C01F6
:1001D0000C5F1F4FC1E0C701B6012AE030E040E0EC
:1001E00050E00E94480ADC01CB01F8014191519195
:1001F000619171918F016A017B01C80ED91EEA1EBF
:10020000FB1ECF5FCD1739F7F1E0F715E8F4820157
:100210000C5F1F4FC1E0C501B4012AE030E040E0AF
:1002200050E00E94480ADC01CB01F8014191519154
:10023000619171918F014A015B01880E991EAA1E7E
:10024000BB1ECF5FC71539F7C814D904EA04FB04F5
:1002500090F48C189D08AE08BF08F101808291824D
:10026000A282B3828DE20E94B408F1018081918163
:100270000E9429090DC0D701C60188199909AA0948
:10028000BB09F10180839183A283B3830E94290972
:10029000DF91CF911F910F91FF90EF90DF90CF9062
:1002A000BF90AF909F908F907F905F904F903F90C6
:1002B0002F9008952F923F924F925F927F928F924C
:1002C0009F92AF92BF92CF92DF92EF92FF920F93E5
:1002D0001F93CF93DF932B01D42F722E1801FC01B3
:1002E00080809180A280B380FB01C080D180E280B9
:1002F000F3804230E8F08C010C5F1F4FC1E0C50174
:10030000B4012AE030E040E050E00E94480ADC01FD
:10031000CB01F80141915191619171918F014A0195
:100320005B01880E991EAA1EBB1ECF5FCD1739F741
:10033000F1E0F715E8F482010C5F1F4FC1E0C7013F
:10034000B6012AE030E040E050E00E94480ADC01BB
:10035000CB01F80141915191619171918F016A0135
:100360007B01C80ED91EEA1EFB1ECF5FC71539F7E9
:10037000C701B601A50194010E94480ADC01CB0126
:10038000F10180839183A283B3830E942909DF91C5
:10039000CF911F910F91FF90EF90DF90CF90BF9082
:1003A000AF909F908F907F905F904F903F902F9055
:1003B00008952F923F924F925F927F928F929F92D9
:1003C000AF92BF92CF92DF92EF92FF920F931F9363
:1003D000CF93DF932B01D42F722E1801FC01808064
:1003E0009180A280B380FB01C080D180E280F38045
:1003F0004230E8F08C010C5F1F4FC1E0C501B40131
:100400002AE030E040E050E00E94480ADC01CB01E5
:10041000F80141915191619171918F014A015B0104
:10042000880E991EAA1EBB1ECF5FCD1739F7F1E0CB
:10043000F715E8F482010C5F1F4FC1E0C701B60158
:100440002AE030E040E050E00E94480ADC01CB01A5
:10045000F80141915191619171918F016A017B0184
:10046000C80ED91EEA1EFB1ECF5FC71539F7C1148F
:10047000D104E104F10491F40E94F90880E690E0CF
:100480000E94EA0880EC0E94190885E062E00E9460
:10049000060981E790E00E94EA080FC0C501B40197
:1004A000A70196010E94670AF101208331834283EC
:1004B0005383822F932F0E942909DF91CF911F919F
:1004C0000F91FF90EF90DF90CF90BF90AF909F90F3
:1004D0008F907F905F904F903F902F900895CF9393
:1004E000DF93CDB7DEB7A8970FB6F894DEBF0FBE87
:1004F000CDBF0E944F080E94C40685E061E00E94C3
:10050000060989E790E00E94EA0880EC0E94190839
:1005100082E890E00E94EA088FEF93EDA0E381501B
:100520009040A040E1F700C000000E94F90880EC74
:100530000E94190885E062E00E94060981E790E0C8
:100540000E94EA0882E00E94190810E00F2EF1E7ED
:10055000AF2EF0E0BF2EF02DEE2499249394CE011F
:1005600085960E9411078DA19EA1AFA1B8A58F3FCE
:100570009105A105B10599F38B329105A105B1054E
:10058000A9F18D329105A105B10581F18A3291055C
:10059000A105B10559F18F329105A105B10531F1E0
:1005A0008D339105A105B10509F183329105A105AE
:1005B000B105E1F024E0F216C9F0DD20B9F4CC2059
:1005C000A9F4112399F4EF2DF0E0EE0FFF1FEE0FC9
:1005D000FF1F21E030E02C0F3D1FE20FF31F84834B
:1005E0009583A683B783F3940E9429098DA19EA1C8
:1005F000AFA1B8A58B329105A105B10579F08D3277
:100600009105A105B10551F08A329105A105B10509
:1006100029F08F329105A105B105E1F4FF2051F0D9
:10062000DD2041F4CC2031F4112321F4882E0E94E6
:10063000B408D92C8DA19EA1AFA1B8A58B3291058C
:10064000A105B10509F4A2C08D329105A105B1053E
:1006500009F49CC08A329105A105B10509F496C040
:100660008F329105A105B10509F490C08D33910534
:10067000A105B10589F183329105A105B10509F400
:1006800085C0FF2009F482C031E0D31609F07EC096
:1006900024E0C21609F47AC0112309F077C0EC2DCA
:1006A000F0E0EE0FFF1FEE0FFF1F21E030E02C0FF8
:1006B0003D1FE20FF31F848B958BA68BB78BC394E2
:1006C0000E9429098DA19EA1AFA1B8A58D339105E6
:1006D000A105B10521F05AC0FF2009F457C031E04F
:1006E000D31609F053C0CC2009F450C0112309F0EF
:1006F0004DC08DE30E94B4088BE2881671F0881516
:1007000028F09AE2891609F040C023C0ADE28A16AB
:1007100091F0BFE28B16C9F52AC0CE010596BE0145
:100720006B5E7F4F4F2D2C2D8E010F5F1F4F0E9450
:100730004900192D2BC0CE010596BE016B5E7F4F7F
:100740004F2D2C2D8E010F5F1F4F0E94C600192DBB
:100750001DC0CE010596BE016B5E7F4F4F2D2C2D27
:100760008E010F5F1F4F0E945A01192D0FC0CE013D
:100770000596BE016B5E7F4F4F2D2C2D8E010F5FB6
:100780001F4F0E94D901192D01C0192D8DA19EA1C5
:10079000AFA1B8A583329105A105B10509F0DFCE5F
:1007A0000E94F90880EC0E94190885E062E00E942E
:1007B0000609C5010E94EA0882E00E9419081E2D60
:1007C000CE2CDE2CFE2CCBCE843008F08BC06830D3
:1007D00008F08AC0423008F089C0813041F1813090
:1007E00038F0823009F441C0833009F081C05BC029
:1007F000413071F42AB381E090E0AC0102C0440FB3
:10080000551F6A95E2F7BA01622B6ABB80E0089532
:100810002AB381E090E0AC0102C0440F551F6A95F5
:10082000E2F7BA01609562236ABB80E00895413027
:1008300069F447B321E030E0C90102C0880F991F75
:100840006A95E2F7842B87BB80E0089527B381E0A7
:1008500090E0AC0102C0440F551F6A95E2F7BA015F
:100860006095622367BB80E00895413069F444B32A
:1008700021E030E0C90102C0880F991F6A95E2F7B4
:10088000842B84BB80E0089524B381E090E0AC0128
:1008900002C0440F551F6A95E2F7BA0160956223C2
:1008A00064BB80E00895413071F421B381E090E0B1
:1008B000AC0102C0440F551F6A95E2F7BA01622BE2
:1008C00061BB80E0089521B381E090E0AC0102C0FB
:1008D000440F551F6A95E2F7BA016095622361BB28
:1008E00080E0089581E0089581E0089581E0089511
:1008F00080E00895843008F08BC0683008F08AC02A
:10090000423008F089C0813041F1813038F08230C6
:1009100009F441C0833009F081C05BC0413071F4FB
:100920002BB381E090E0AC0102C0440F551F6A95E3
:10093000E2F7BA01622B6BBB80E008952BB381E034
:1009400090E0AC0102C0440F551F6A95E2F7BA016E
:10095000609562236BBB80E00895413069F448B331
:1009600021E030E0C90102C0880F991F6A95E2F7C3
:10097000842B88BB80E0089528B381E090E0AC012F
:1009800002C0440F551F6A95E2F7BA0160956223D1
:1009900068BB80E00895413069F445B321E030E060
:1009A000C90102C0880F991F6A95E2F7842B85BBA5
:1009B00080E0089525B381E090E0AC0102C0440FCF
:1009C000551F6A95E2F7BA016095622365BB80E026
:1009D0000895413071F422B381E090E0AC0102C08F
:1009E000440F551F6A95E2F7BA01622B62BB80E0A3
:1009F000089522B381E090E0AC0102C0440F551F7E
:100A00006A95E2F7BA016095622362BB80E00895BF
:100A100081E0089581E0089581E0089580E00895DF
:100A2000843008F045C0683008F044C08130B1F02F
:100A3000813030F0823001F1833009F03DC02AC0AE
:100A40002BB381E090E0AC0102C0440F551F6A95C2
:100A5000E2F7BA0162276BBB80E0089528B381E01A
:100A600090E0AC0102C0440F551F6A95E2F7BA014D
:100A7000622768BB80E0089525B381E090E0AC0177
:100A800002C0440F551F6A95E2F7BA01622765BBA1
:100A900080E0089522B381E090E0AC0102C0440FF1
:100AA000551F6A95E2F7BA01622762BB80E008959C
:100AB00081E0089581E0089580E00895843008F091
:100AC00049C0683008F048C04115510509F446C0D6
:100AD0008130B1F0813030F0823001F1833009F0A3
:100AE0003FC02AC089B390E09C0102C0359527958C
:100AF0006A95E2F7B9016170FA01608380E00895B8
:100B000086B390E09C0102C0359527956A95E2F77F
:100B1000B9016170FA01608380E0089583B390E0C9
:100B20009C0102C0359527956A95E2F7B90161707D
:100B3000FA01608380E0089580B390E09C0102C0D8
:100B4000359527956A95E2F7B9016170FA016083DE
:100B500080E0089581E0089581E0089581E008959E
:100B600080E00895843008F045C0683008F044C043
:100B70008130B1F0813030F0823001F1833009F002
:100B80003DC02AC02BB381E090E0AC0102C0440F0D
:100B9000551F6A95E2F7BA01622B6BBB80E008959E
:100BA00028B381E090E0AC0102C0440F551F6A9564
:100BB000E2F7BA01622B68BB80E0089525B381E0BB
:100BC00090E0AC0102C0440F551F6A95E2F7BA01EC
:100BD000622B65BB80E0089522B381E090E0AC0118
:100BE00002C0440F551F6A95E2F7BA01622B62BB3F
:100BF00080E0089581E0089581E0089580E00895FF
:100C00008430A8F5813091F0813028F08230C9F02D
:100C1000833079F521C06F3F29F48AB38FEF8ABB07
:100C200080E008958AB31ABA80E008956F3F29F4EE
:100C300087B38FEF87BB80E0089587B317BA80E052
:100C400008956F3F29F484B38FEF84BB80E008954B
:100C500084B314BA80E008956F3F29F481B38FEF15
:100C600081BB80E0089581B311BA80E0089581E0EE
:100C7000089580E008958430A8F4813051F08130E7
:100C800028F0823049F0833079F409C06BBB80E0F2
:100C9000089568BB80E0089565BB80E0089562BB5D
:100CA00080E0089581E0089580E00895843000F5A3
:100CB00061157105F9F0813061F0813028F08230E2
:100CC00069F08330C9F40FC08BB3FB01808380E0EF
:100CD000089588B3FB01808380E0089585B3FB010C
:100CE000808380E0089582B3FB01808380E00895D3
:100CF00081E0089581E0089580E008958430E8F46B
:100D0000813061F0813028F0823069F08330B9F4AD
:100D10000FC08BB380958BBB80E0089588B380951E
:100D200088BB80E0089585B3809585BB80E00895F9
:100D300082B3809582BB80E0089581E0089580E0D1
:100D400008958430E8F4813061F0813028F08230F9
:100D500069F08330B9F40FC08BB38FEF8BBB80E0A9
:100D6000089588B38FEF88BB80E0089585B38FEF37
:100D700085BB80E0089582B38FEF82BB80E0089549
:100D800081E0089580E0089582E064E040E00E9400
:100D9000E40382E065E040E00E94E40382E066E074
:100DA00040E00E94E40382E067E040E00E94E40348
:100DB00082E060E04FEF0E94E40382E061E04FEFE9
:100DC0000E94E40382E062E04FEF0E94E40382E0CD
:100DD00063E04FEF0E94E40382E060E041E00E94A4
:100DE000E40382E061E041E00E94E40382E062E02B
:100DF00041E00E94E40382E063E041E00E94E403FA
:100E000082E064E00E94B20582E065E00E94B205E3
:100E100082E066E00E94B20582E067E00E94B205CF
:100E200008952F923F924F925F926F927F928F928E
:100E30009F92AF92BF92CF92DF92EF92FF920F9369
:100E40001F93CF93DF93CDB7DEB7A7970FB6F89474
:100E5000DEBF0FBECDBF9FA38EA3009709F490C045
:100E60008FEFEEA1FFA1808382E08E878F87888B32
:100E7000898B1A8691E09B878C8793E09D878E8370
:100E80008F838887898784E08A8385E08B8386E0E7
:100E90008C8387E08D83DE015296E3E9F0E080E108
:100EA00001900D928150E1F70F2EFEE02F2E33249A
:100EB000F02D2C0E3D1ECE010A969BA38AA38824FA
:100EC00099249DA28CA2F10171901F01EAA1FBA1BE
:100ED0006190FBA3EAA3872D662D40E00E947A046F
:100EE0000F2EF6E0CF2EDD24F02DCC0EDD1EAA2431
:100EF000BB246894A1F8AC0EBD1E00E010E02801F0
:100F0000F601E1906F01F501F1905F018E2D6F2DDB
:100F1000AE014F5F5F4F0E945E0589818823F1F427
:100F20008E2D6F2DAE014F5F5F4F0E945E05898150
:100F30008823B1F3F201EE0FFF1FEE0FFF1F81E0D8
:100F400090E08C0F9D1FE80FF91F8CA19DA1E80F69
:100F5000F91F8189EEA1FFA1808312C00F5F1F4F8F
:100F60000430110561F6872D662D41E00E947A0458
:100F70000894811C911CF4E08F16910409F0A1CF14
:100F8000A7960FB6F894DEBF0FBECDBFDF91CF910D
:100F90001F910F91FF90EF90DF90CF90BF90AF9097
:100FA0009F908F907F906F905F904F903F902F9089
:100FB0000895CF93C82F80FD06C083E064E040E031
:100FC0000E947A0405C083E064E041E00E947A0454
:100FD0008C2F869580FD06C083E065E040E00E948E
:100FE0007A0405C083E065E041E00E947A048C2F1A
:100FF0008695869580FD06C083E066E040E00E940D
:101000007A0405C083E066E041E00E947A04C69558
:10101000C695C695C0FD06C083E067E040E00E942B
:101020007A0405C083E067E041E00E947A04CF9132
:101030000895CF93C82F81E061E040E00E947A04D8
:1010400081E062E040E00E947A048C2F82958F70EC
:101050000E94D90781E063E041E00E947A048FE9B1
:101060009FE00197F1F700C0000081E063E040E0FD
:101070000E947A048C2F0E94D90781E063E041E04E
:101080000E947A048FE99FE00197F1F700C0000009
:1010900081E063E040E00E947A04CF91089581E00E
:1010A00061E041E00E94E40381E062E041E00E94EF
:1010B000E40381E063E041E00E94E40383E064E054
:1010C00041E00E94E40383E065E041E00E94E40324
:1010D00083E066E041E00E94E40383E067E041E0F2
:1010E0000E94E4038FE795EBA1E081509040A0407F
:1010F000E1F700C0000081E061E040E00E947A0476
:1011000081E062E040E00E947A0482E00E94D90718
:1011100081E063E041E00E947A04AFE9BFE011970B
:10112000F1F700C0000081E063E040E00E947A0433
:1011300088E20E941908B0EFBA95F1F78FE00E949B
:10114000190880EF8A95F1F781E00E941908AFE352
:10115000BFE11197F1F700C0000086E00E94190876
:10116000B0EFBA95F1F70895CF93C82F81E061E011
:1011700041E00E947A0481E062E040E00E947A044B
:101180008C2F82958F700E94D90781E063E041E047
:101190000E947A048FE99FE00197F1F700C00000F8
:1011A00081E063E040E00E947A048C2F0E94D9071E
:1011B00081E063E041E00E947A048FE99FE00197BB
:1011C000F1F700C0000081E063E040E00E947A0493
:1011D000CF910895CF93DF93EC018881882331F07C
:1011E00021960E94B40889918823D9F7DF91CF9185
:1011F000089581E00E9419088FE39FE10197F1F7BC
:1012000000C0000080E80E9419080895CF93DF9382
:1012100000D000D0CDB7DEB790E8998390EC9A83E8
:1012200094E99B8394ED9C838150FE01E60FF11DB0
:101230009081890F0E9419088FE99FE00197F1F7CB
:1012400000C000000F900F900F900F90DF91CF9192
:101250000895CF93DF93CDB7DEB7A0970FB6F8947C
:10126000DEBF0FBECDBFBE016F5F7F4F4AE050E0D3
:101270000E94890ACE0101960E94EA08A0960FB644
:10128000F894DEBF0FBECDBFDF91CF9108950F93CD
:101290001F93CF93DF93CDB7DEB7A0970FB6F89427
:1012A000DEBF0FBECDBF062F142FBE016F5F7F4F75
:1012B0004AE050E00E94890A802F612F0E940609AF
:1012C000CE0101960E94EA08A0960FB6F894DEBF00
:1012D0000FBECDBFDF91CF911F910F910895CF9396
:1012E000C82F81E061E040E00E947A0481E062E082
:1012F00040E00E947A0483E06C2F0E943B0681E06C
:1013000063E041E00E947A048FE99FE00197F1F7E2
:1013100000C0000081E063E040E00E947A04CF91C9
:10132000089581E061E041E00E94E40381E062E031
:1013300041E00E94E40381E063E041E00E94E403B5
:1013400083E06FEF0E9400068FE795EBA1E08150EC
:101350009040A040E1F700C0000088E30E946F09C0
:1013600090EF9A95F1F78FE00E946F09A0EFAA9590
:10137000F1F781E00E946F098FE39FE10197F1F798
:1013800000C0000086E00E946F0990EF9A95F1F787
:101390000895CF93C82F81E061E041E00E947A0474
:1013A00081E062E040E00E947A0483E06C2F0E94BA
:1013B0003B0681E063E041E00E947A048FE99FE010
:1013C0000197F1F700C0000081E063E040E00E9477
:1013D0007A04CF910895CF93DF93EC01888188231D
:1013E00031F021960E94C90989918823D9F7DF91AC
:1013F000CF91089581E00E946F098FE39FE10197EB
:10140000F1F700C0000080E80E946F090895CF93B3
:10141000DF9300D000D0CDB7DEB790E8998390EC91
:101420009A8394E99B8394ED9C838150FE01E60F9F
:10143000F11D9081890F0E946F098FE99FE001974C
:10144000F1F700C000000F900F900F900F90DF9108
:10145000CF910895CF93DF93CDB7DEB760970FB6E6
:10146000F894DEBF0FBECDBFBE016F5F7F4F4AE075
:1014700050E00E94890ACE0101960E94EB09609615
:101480000FB6F894DEBF0FBECDBFDF91CF910895A8
:10149000629FD001739FF001829FE00DF11D649F58
:1014A000E00DF11D929FF00D839FF00D749FF00DE4
:1014B000659FF00D9927729FB00DE11DF91F639F85
:1014C000B00DE11DF91FBD01CF0111240895A1E266
:1014D0001A2EAA1BBB1BFD010DC0AA1FBB1FEE1FAE
:1014E000FF1FA217B307E407F50720F0A21BB30BF9
:1014F000E40BF50B661F771F881F991F1A9469F775
:1015000060957095809590959B01AC01BD01CF01D0
:101510000895FB019F01E8944230C4F04532B4F4D1
:101520004A3029F497FB1EF4909581959F4F642FC4
:1015300077270E94BA0A805D8A330CF0895D819317
:10154000CB010097A1F716F45DE251931082C90117
:101550000C94AA0ADC01FC01672F71917723E1F753
:10156000329704C07C916D9370836291AE17BF0770
:10157000C8F30895AA1BBB1B51E107C0AA1FBB1FDC
:10158000A617B70710F0A61BB70B881F991F5A950F
:10159000A9F780959095BC01CD010895F894FFCFEF
:1015A0004469766973696F6E204552524F522F30ED
:1015B00000232052657365740057454C434F4D45D9
:1015C0002100202B2D2F2A43414C434F4C41544F97
:1015D0005220000708092F0405062A0102032D23C3
:0415E000003D2B009F
:00000001FF
