S012000043414C43554C41544F522E7372656328
S11300000C942A000C9447000C9447000C9447006D
S11300100C9447000C9447000C9447000C94470040
S11300200C9447000C9447000C9447000C94470030
S11300300C9447000C9447000C9447000C94470020
S11300400C9447000C9447000C9447000C94470010
S11300500C94470011241FBECFE5D8E0DEBFCDBF0E
S113006010E0A0E6B0E0ECE9FCE102C005900D92DE
S1130070AA3AB107D9F710E0AAEAB0E001C01D928C
S1130080AA3AB107E1F70E946F020C944C0E0C944B
S113009000002F923F924F925F927F928F929F9295
S11300A0AF92BF92CF92DF92EF92FF920F931F9382
S11300B0CF93DF932B01D42F722E1801FC01808083
S11300C09180A280B380FB01C080D180E280F38064
S11300D04230E8F08C010C5F1F4FC1E0C501B40150
S11300E02AE030E040E050E00E94260BDC01CB0126
S11300F0F80141915191619171918F014A015B0124
S1130100880E991EAA1EBB1ECF5FCD1739F7F1E0EA
S1130110F715E8F482010C5F1F4FC1E0C701B60177
S11301202AE030E040E050E00E94260BDC01CB01E5
S1130130F80141915191619171918F016A017B01A3
S1130140C80ED91EEA1EFB1ECF5FC71539F7D701AB
S1130150C601880D991DAA1DBB1DF10180839183E1
S1130160A283B3830E943109DF91CF911F910F9134
S1130170FF90EF90DF90CF90BF90AF909F908F90C3
S11301807F905F904F903F902F9008952F923F92D1
S11301904F925F927F928F929F92AF92BF92CF9233
S11301A0DF92EF92FF920F931F93CF93DF932B0174
S11301B0D42F722E1801FC01C080D180E280F3801C
S11301C0FB0180809180A280B3804230E8F08C01F2
S11301D00C5F1F4FC1E0C701B6012AE030E040E0E8
S11301E050E00E94260BDC01CB01F80141915191B2
S11301F0619171918F016A017B01C80ED91EEA1EBB
S1130200FB1ECF5FCD1739F7F1E0F715E8F4820153
S11302100C5F1F4FC1E0C501B4012AE030E040E0AB
S113022050E00E94260BDC01CB01F8014191519171
S1130230619171918F014A015B01880E991EAA1E7A
S1130240BB1ECF5FC71539F7C814D904EA04FB04F1
S113025090F48C189D08AE08BF08F1018082918249
S1130260A282B3828DE20E94BC08F1018081918157
S11302700E9431090DC0D701C60188199909AA093C
S1130280BB09F10180839183A283B3830E94310966
S1130290DF91CF911F910F91FF90EF90DF90CF905E
S11302A0BF90AF909F908F907F905F904F903F90C2
S11302B02F9008952F923F924F925F927F928F9248
S11302C09F92AF92BF92CF92DF92EF92FF920F93E1
S11302D01F93CF93DF932B01D42F722E1801FC01AF
S11302E080809180A280B380FB01C080D180E280B5
S11302F0F3804230E8F08C010C5F1F4FC1E0C50170
S1130300B4012AE030E040E050E00E94260BDC011A
S1130310CB01F80141915191619171918F014A0191
S11303205B01880E991EAA1EBB1ECF5FCD1739F73D
S1130330F1E0F715E8F482010C5F1F4FC1E0C7013B
S1130340B6012AE030E040E050E00E94260BDC01D8
S1130350CB01F80141915191619171918F016A0131
S11303607B01C80ED91EEA1EFB1ECF5FC71539F7E5
S1130370C701B601A50194010E94260BDC01CB0143
S1130380F10180839183A283B3830E943109DF91B9
S1130390CF911F910F91FF90EF90DF90CF90BF907E
S11303A0AF909F908F907F905F904F903F902F9051
S11303B008952F923F924F925F927F928F929F92D5
S11303C0AF92BF92CF92DF92EF92FF920F931F935F
S11303D0CF93DF932B01D42F722E1801FC01808060
S11303E09180A280B380FB01C080D180E280F38041
S11303F04230E8F08C010C5F1F4FC1E0C501B4012D
S11304002AE030E040E050E00E94260BDC01CB0102
S1130410F80141915191619171918F014A015B0100
S1130420880E991EAA1EBB1ECF5FCD1739F7F1E0C7
S1130430F715E8F482010C5F1F4FC1E0C701B60154
S11304402AE030E040E050E00E94260BDC01CB01C2
S1130450F80141915191619171918F016A017B0180
S1130460C80ED91EEA1EFB1ECF5FC71539F7C1148B
S1130470D104E104F10491F40E94010980E690E0C2
S11304800E94F20880EC0E94210885E062E00E944C
S11304900E0981E790E00E94F2080FC0C501B40183
S11304A0A70196010E94450BF10120833183428309
S11304B05383822F932F0E943109DF91CF911F9193
S11304C00F91FF90EF90DF90CF90BF90AF909F90EF
S11304D08F907F905F904F903F902F900895CF938F
S11304E0DF93CDB7DEB7A8970FB6F894DEBF0FBE83
S11304F0CDBF0E9457080E94CC0685E061E00E94AF
S11305000E0989E790E00E94F20880EC0E9421081D
S113051082E890E00E94F2088FEF93EDA0E381500F
S11305209040A040E1F700C000000E94010980EC67
S11305300E94210885E062E00E940E0981E790E0B4
S11305400E94F20882E00E94210810E0AA24CC2430
S1130550C394CE0185960E9419078DA19EA1AFA1D7
S1130560B8A58F3F9105A105B10599F38B3291058B
S1130570A105B105A9F18D329105A105B10581F15E
S11305808A329105A105B10559F18F329105A10572
S1130590B10531F18D339105A105B10509F183321E
S11305A09105A105B105E1F024E0F216C9F0EE20B1
S11305B0B9F4DD20A9F4112399F4EF2DF0E0EE0F46
S11305C0FF1FEE0FFF1F21E030E02C0F3D1FE20F55
S11305D0F31F84839583A683B783F3940E94310920
S11305E08DA19EA1AFA1B8A58B329105A105B1053E
S11305F079F08D329105A105B10551F08A3291054A
S1130600A105B10529F08F329105A105B105E1F4E9
S1130610FF2051F0EE2041F4DD2031F4112321F4C8
S1130620B82E0E94BC08EC2C8DA19EA1AFA1B8A548
S11306308B329105A105B10509F4A2C08D32910553
S1130640A105B10509F49CC08A329105A105B10543
S113065009F496C08F329105A105B10509F490C043
S11306608D339105A105B10589F183329105A10569
S1130670B10509F485C0FF2009F482C031E0E31616
S113068009F07EC024E0D21609F47AC0112309F0DF
S113069077C0ED2DF0E0EE0FFF1FEE0FFF1F21E0FE
S11306A030E02C0F3D1FE20FF31F848B958BA68B3C
S11306B0B78BD3940E9431098DA19EA1AFA1B8A597
S11306C08D339105A105B10521F05AC0FF2009F42D
S11306D057C031E0E31609F053C0DD2009F450C0DF
S11306E0112309F04DC08DE30E94BC088BE2B816BB
S11306F071F08B1528F09AE2B91609F040C023C0B6
S1130700ADE2BA1691F0BFE2BB16C9F52AC0CE011C
S11307100596BE016B5E7F4F4F2D2D2D8E010F5F11
S11307201F4F0E9449001C2D2BC0CE010596BE010F
S11307306B5E7F4F4F2D2D2D8E010F5F1F4F0E943B
S1130740C6001C2D1DC0CE010596BE016B5E7F4FF9
S11307504F2D2D2D8E010F5F1F4F0E945A011C2D0E
S11307600FC0CE010596BE016B5E7F4F4F2D2D2D20
S11307708E010F5F1F4F0E94D9011C2D01C01C2D3B
S11307808DA19EA1AFA1B8A583329105A105B105A4
S113079009F0DFCEFF2009F4DCCE21E0E21609F0F7
S11307A0D8CEDD2009F4D5CE113009F0D2CE0E9486
S11307B0010980EC0E94210885E062E00E940E0994
S11307C081E790E00E94F20882E00E9421081A2D3D
S11307D0DA2CEA2CFA2CBDCE843008F08BC06830B9
S11307E008F08AC0423008F089C0813041F181307C
S11307F038F0823009F441C0833009F081C05BC015
S1130800413071F42AB381E090E0AC0102C0440F9E
S1130810551F6A95E2F7BA01622B6ABB80E008951E
S11308202AB381E090E0AC0102C0440F551F6A95E1
S1130830E2F7BA01609562236ABB80E00895413013
S113084069F447B321E030E0C90102C0880F991F61
S11308506A95E2F7842B87BB80E0089527B381E093
S113086090E0AC0102C0440F551F6A95E2F7BA014B
S11308706095622367BB80E00895413069F444B316
S113088021E030E0C90102C0880F991F6A95E2F7A0
S1130890842B84BB80E0089524B381E090E0AC0114
S11308A002C0440F551F6A95E2F7BA0160956223AE
S11308B064BB80E00895413071F421B381E090E09D
S11308C0AC0102C0440F551F6A95E2F7BA01622BCE
S11308D061BB80E0089521B381E090E0AC0102C0E7
S11308E0440F551F6A95E2F7BA016095622361BB14
S11308F080E0089581E0089581E0089581E00895FD
S113090080E00895843008F08BC0683008F08AC015
S1130910423008F089C0813041F1813038F08230B2
S113092009F441C0833009F081C05BC0413071F4E7
S11309302BB381E090E0AC0102C0440F551F6A95CF
S1130940E2F7BA01622B6BBB80E008952BB381E020
S113095090E0AC0102C0440F551F6A95E2F7BA015A
S1130960609562236BBB80E00895413069F448B31D
S113097021E030E0C90102C0880F991F6A95E2F7AF
S1130980842B88BB80E0089528B381E090E0AC011B
S113099002C0440F551F6A95E2F7BA0160956223BD
S11309A068BB80E00895413069F445B321E030E04C
S11309B0C90102C0880F991F6A95E2F7842B85BB91
S11309C080E0089525B381E090E0AC0102C0440FBB
S11309D0551F6A95E2F7BA016095622365BB80E012
S11309E00895413071F422B381E090E0AC0102C07B
S11309F0440F551F6A95E2F7BA01622B62BB80E08F
S1130A00089522B381E090E0AC0102C0440F551F69
S1130A106A95E2F7BA016095622362BB80E00895AB
S1130A2081E0089581E0089581E0089580E00895CB
S1130A30843008F045C0683008F044C08130B1F01B
S1130A40813030F0823001F1833009F03DC02AC09A
S1130A502BB381E090E0AC0102C0440F551F6A95AE
S1130A60E2F7BA0162276BBB80E0089528B381E006
S1130A7090E0AC0102C0440F551F6A95E2F7BA0139
S1130A80622768BB80E0089525B381E090E0AC0163
S1130A9002C0440F551F6A95E2F7BA01622765BB8D
S1130AA080E0089522B381E090E0AC0102C0440FDD
S1130AB0551F6A95E2F7BA01622762BB80E0089588
S1130AC081E0089581E0089580E00895843008F07D
S1130AD049C0683008F048C04115510509F446C0C2
S1130AE08130B1F0813030F0823001F1833009F08F
S1130AF03FC02AC089B390E09C0102C03595279578
S1130B006A95E2F7B9016170FA01608380E00895A3
S1130B1086B390E09C0102C0359527956A95E2F76B
S1130B20B9016170FA01608380E0089583B390E0B5
S1130B309C0102C0359527956A95E2F7B901617069
S1130B40FA01608380E0089580B390E09C0102C0C4
S1130B50359527956A95E2F7B9016170FA016083CA
S1130B6080E0089581E0089581E0089581E008958A
S1130B7080E00895843008F045C0683008F044C02F
S1130B808130B1F0813030F0823001F1833009F0EE
S1130B903DC02AC02BB381E090E0AC0102C0440FF9
S1130BA0551F6A95E2F7BA01622B6BBB80E008958A
S1130BB028B381E090E0AC0102C0440F551F6A9550
S1130BC0E2F7BA01622B68BB80E0089525B381E0A7
S1130BD090E0AC0102C0440F551F6A95E2F7BA01D8
S1130BE0622B65BB80E0089522B381E090E0AC0104
S1130BF002C0440F551F6A95E2F7BA01622B62BB2B
S1130C0080E0089581E0089581E0089580E00895EA
S1130C108430A8F5813091F0813028F08230C9F019
S1130C20833079F521C06F3F29F48AB38FEF8ABBF3
S1130C3080E008958AB31ABA80E008956F3F29F4DA
S1130C4087B38FEF87BB80E0089587B317BA80E03E
S1130C5008956F3F29F484B38FEF84BB80E0089537
S1130C6084B314BA80E008956F3F29F481B38FEF01
S1130C7081BB80E0089581B311BA80E0089581E0DA
S1130C80089580E008958430A8F4813051F08130D3
S1130C9028F0823049F0833079F409C06BBB80E0DE
S1130CA0089568BB80E0089565BB80E0089562BB49
S1130CB080E0089581E0089580E00895843000F58F
S1130CC061157105F9F0813061F0813028F08230CE
S1130CD069F08330C9F40FC08BB3FB01808380E0DB
S1130CE0089588B3FB01808380E0089585B3FB01F8
S1130CF0808380E0089582B3FB01808380E00895BF
S1130D0081E0089581E0089580E008958430E8F456
S1130D10813061F0813028F0823069F08330B9F499
S1130D200FC08BB380958BBB80E0089588B380950A
S1130D3088BB80E0089585B3809585BB80E00895E5
S1130D4082B3809582BB80E0089581E0089580E0BD
S1130D5008958430E8F4813061F0813028F08230E5
S1130D6069F08330B9F40FC08BB38FEF8BBB80E095
S1130D70089588B38FEF88BB80E0089585B38FEF23
S1130D8085BB80E0089582B38FEF82BB80E0089535
S1130D9081E0089580E0089582E064E040E00E94EC
S1130DA0EC0382E065E040E00E94EC0382E066E050
S1130DB040E00E94EC0382E067E040E00E94EC0324
S1130DC082E060E04FEF0E94EC0382E061E04FEFCD
S1130DD00E94EC0382E062E04FEF0E94EC0382E0A9
S1130DE063E04FEF0E94EC0382E060E041E00E9488
S1130DF0EC0382E061E041E00E94EC0382E062E007
S1130E0041E00E94EC0382E063E041E00E94EC03D5
S1130E1082E064E00E94BA0582E065E00E94BA05BF
S1130E2082E066E00E94BA0582E067E00E94BA05AB
S1130E3008952F923F924F925F926F927F928F927A
S1130E409F92AF92BF92CF92DF92EF92FF920F9355
S1130E501F93CF93DF93CDB7DEB7A7970FB6F89460
S1130E60DEBF0FBECDBF9FA38EA3009709F490C031
S1130E708FEFEEA1FFA1808382E08E878F87888B1E
S1130E80898B1A8691E09B878C8793E09D878E835C
S1130E908F838887898784E08A8385E08B8386E0D3
S1130EA08C8387E08D83DE015296E3E9F0E080E1F4
S1130EB001900D928150E1F70F2EFEE02F2E332486
S1130EC0F02D2C0E3D1ECE010A969BA38AA38824E6
S1130ED099249DA28CA2F10171901F01EAA1FBA1AA
S1130EE06190FBA3EAA3872D662D40E00E94820453
S1130EF00F2EF6E0CF2EDD24F02DCC0EDD1EAA241D
S1130F00BB246894A1F8AC0EBD1E00E010E02801DB
S1130F10F601E1906F01F501F1905F018E2D6F2DC7
S1130F20AE014F5F5F4F0E94660589818823F1F40B
S1130F308E2D6F2DAE014F5F5F4F0E946605898134
S1130F408823B1F3F201EE0FFF1FEE0FFF1F81E0C4
S1130F5090E08C0F9D1FE80FF91F8CA19DA1E80F55
S1130F60F91F8189EEA1FFA1808312C00F5F1F4F7B
S1130F700430110561F6872D662D41E00E9482043C
S1130F800894811C911CF4E08F16910409F0A1CF00
S1130F90A7960FB6F894DEBF0FBECDBFDF91CF91F9
S1130FA01F910F91FF90EF90DF90CF90BF90AF9083
S1130FB09F908F907F906F905F904F903F902F9075
S1130FC00895CF93C82F80FD06C083E064E040E01D
S1130FD00E94820405C083E064E041E00E94820430
S1130FE08C2F869580FD06C083E065E040E00E947A
S1130FF0820405C083E065E041E00E9482048C2FF6
S11310008695869580FD06C083E066E040E00E94F8
S1131010820405C083E066E041E00E948204C69534
S1131020C695C695C0FD06C083E067E040E00E9417
S1131030820405C083E067E041E00E948204CF910E
S11310400895CF93C82F81E061E040E00E948204BC
S113105081E062E040E00E9482048C2F82958F70D0
S11310600E94E10781E063E041E00E9482048FE98D
S11310709FE00197F1F700C0000081E063E040E0E9
S11310800E9482048C2F0E94E10781E063E041E02A
S11310900E9482048FE99FE00197F1F700C00000ED
S11310A081E063E040E00E948204CF91089581E0F2
S11310B061E041E00E94EC0381E062E041E00E94D3
S11310C0EC0381E063E041E00E94EC0383E064E030
S11310D041E00E94EC0383E065E041E00E94EC0300
S11310E083E066E041E00E94EC0383E067E041E0D6
S11310F00E94EC038FE795EBA1E081509040A04063
S1131100E1F700C0000081E061E040E00E94820459
S113111081E062E040E00E94820482E00E94E107F4
S113112081E063E041E00E948204AFE9BFE01197EF
S1131130F1F700C0000081E063E040E00E94820417
S113114088E20E942108B0EFBA95F1F78FE00E947F
S1131150210880EF8A95F1F781E00E942108AFE32E
S1131160BFE11197F1F700C0000086E00E9421085A
S1131170B0EFBA95F1F70895CF93C82F81E061E0FD
S113118041E00E94820481E062E040E00E94820427
S11311908C2F82958F700E94E10781E063E041E02B
S11311A00E9482048FE99FE00197F1F700C00000DC
S11311B081E063E040E00E9482048C2F0E94E107FA
S11311C081E063E041E00E9482048FE99FE001979F
S11311D0F1F700C0000081E063E040E00E94820477
S11311E0CF910895CF93DF93EC018881882331F068
S11311F021960E94BC0889918823D9F7DF91CF9169
S1131200089581E00E9421088FE39FE10197F1F79F
S113121000C0000080E80E9421080895CF93DF9366
S113122000D000D0CDB7DEB790E8998390EC9A83D4
S113123094E99B8394ED9C838150FE01E60FF11D9C
S11312409081890F0E9421088FE99FE00197F1F7AF
S113125000C000000F900F900F900F90DF91CF917E
S113126008950F931F93CF93DF93CDB7DEB7A09765
S11312700FB6F894DEBF0FBECDBF2DB73EB72850D2
S113128030400FB6F8943EBF0FBE2DBFEDB7FEB78A
S113129031968E010F5F1F4FADB7BEB712961C93E8
S11312A00E93119721E130E03383228323EA30E067
S11312B035832483978386830E94670B2DB73EB7BB
S11312C0285F3F4F0FB6F8943EBF0FBE2DBFC80135
S11312D00E94F208A0960FB6F894DEBF0FBECDBFF1
S11312E0DF91CF911F910F910895CF93DF93EC017C
S11312F0862F642F0E940E09CE010E943109DF91CE
S1131300CF9108950F931F93CF93DF93CDB7DEB79B
S1131310A0970FB6F894DEBF0FBECDBFDC01CB01A2
S11313202DB73EB72A5030400FB6F8943EBF0FBEDB
S11313302DBF4DB75EB74F5F5F4F8E010F5F1F4FDD
S1131340EDB7FEB71283018321E130E0FA01338364
S1131350228326EA30E03583248386839783A0871B
S1131360B1870E94670B2DB73EB7265F3F4F0FB67C
S1131370F8943EBF0FBE2DBFC8010E94F208A0968C
S11313800FB6F894DEBF0FBECDBFDF91CF911F9192
S11313900F91089588E10E94210808958CE10E942C
S11313A021080895CF93C82F81E061E040E00E94B6
S11313B0820481E062E040E00E94820483E06C2FBA
S11313C00E94430681E063E041E00E9482048FE9C9
S11313D09FE00197F1F700C0000081E063E040E086
S11313E00E948204CF91089581E061E041E00E946F
S11313F0EC0381E062E041E00E94EC0381E063E001
S113140041E00E94EC0383E06FEF0E9408068FE73F
S113141095EBA1E081509040A040E1F700C00000AE
S113142088E30E94D20990EF9A95F1F78FE00E9429
S1131430D209A0EFAA95F1F781E00E94D2098FE3C7
S11314409FE10197F1F700C0000086E00E94D209F5
S113145090EF9A95F1F70895CF93C82F81E061E05A
S113146041E00E94820481E062E040E00E94820444
S113147083E06C2F0E94430681E063E041E00E9418
S113148082048FE99FE00197F1F700C0000081E03A
S113149063E040E00E948204CF910895CF93DF93EC
S11314A0EC018881882331F021960E942C0A8991CD
S11314B08823D9F7DF91CF91089581E00E94D20962
S11314C08FE39FE10197F1F700C0000080E80E94DC
S11314D0D2090895CF93DF9300D000D0CDB7DEB703
S11314E090E8998390EC9A8394E99B8394ED9C8390
S11314F08150FE01E60FF11D9081890F0E94D209EF
S11315008FE99FE00197F1F700C000000F900F9062
S11315100F900F90DF91CF9108950F931F93CF9366
S1131520DF93CDB7DEB7A0970FB6F894DEBF0FBE3A
S1131530CDBF2DB73EB7285030400FB6F8943EBF0C
S11315400FBE2DBFEDB7FEB731968E010F5F1F4F53
S1131550ADB7BEB712961C930E93119721E130E0FC
S11315603383228323EA30E035832483978386837D
S11315700E94670B2DB73EB7285F3F4F0FB6F89414
S11315803EBF0FBE2DBFC8010E944E0AA0960FB6E3
S1131590F894DEBF0FBECDBFDF91CF911F910F91A5
S11315A00895CF93DF93EC01862F642F0E940E09D8
S11315B0CE010E948D0ADF91CF9108950F931F935E
S11315C0CF93DF93CDB7DEB7A0970FB6F894DEBF05
S11315D00FBECDBFDC01CB012DB73EB72A50304042
S11315E00FB6F8943EBF0FBE2DBF4DB75EB74F5F29
S11315F05F4F8E010F5F1F4FEDB7FEB7128301835C
S113160021E130E0FA013383228326EA30E0358396
S1131610248386839783A087B1870E94670B2DB7A5
S11316203EB7265F3F4F0FB6F8943EBF0FBE2DBFA7
S1131630C8010E944E0AA0960FB6F894DEBF0FBEF2
S1131640CDBFDF91CF911F910F910895629FD0017B
S1131650739FF001829FE00DF11D649FE00DF11D69
S1131660929FF00D839FF00D749FF00D659FF00D18
S11316709927729FB00DE11DF91F639FB00DE11D05
S1131680F91FBD01CF0111240895A1E21A2EAA1B4E
S1131690BB1BFD010DC0AA1FBB1FEE1FFF1FA2171E
S11316A0B307E407F50720F0A21BB30BE40BF50B1B
S11316B0661F771F881F991F1A9469F760957095A4
S11316C0809590959B01AC01BD01CF010895AEE0DA
S11316D0B0E0EDE6FBE00C94230E0D891E898F89A2
S11316E0988D26E02C831A83098397FF02C080E03B
S11316F090E801979E838D83AE01455E5F4FCE01D6
S11317000196698D7A8D0E94970B4D815E8157FDFC
S11317100AC02F813885421753070CF49A01020F2F
S1131720131FF80110822E96E4E00C943F0EADE0F6
S1131730B0E0EDE9FBE00C94150E3C017D876C876D
S11317405A01FC0117821682838181FFC8C12E01D0
S11317500894411C511CF3019381EC85FD8593FD94
S1131760859193FF8191FD87EC87882309F4B3C1A8
S1131770853241F493FD859193FF8191FD87EC8738
S1131780853229F490E0B3010E948B0DE4CFFF244D
S1131790EE2410E01032B0F48B3269F08C3228F46D
S11317A0803251F0833271F40BC08D3239F08033C2
S11317B049F411602CC01260146029C0186027C05D
S11317C0106125C017FD2EC0282F20532A3098F40D
S11317D016FF08C08F2D880FF82EFF0CFF0CF80E93
S11317E0F20E15C08E2D880FE82EEE0CEE0CE80ECE
S11317F0E20E10620CC08E3221F416FD6CC110642E
S113180006C08C3611F4106802C0883659F4EC8591
S1131810FD8593FD859193FF8191FD87EC87882356
S113182009F0B8CF982F9554933018F09052933014
S113183038F424E030E0A20EB31E3FE339830FC036
S1131840833631F0833781F0833509F05AC022C0E2
S1131850F5018081898322E030E0A20EB31E21E0ED
S1131860C22ED12C420114C092E0292E312C2A0C14
S11318703B1CF5018080918016FF03C06F2D70E042
S113188002C06FEF7FEFC4010E94800D6C01510113
S11318901F7715C082E0282E312C2A0C3B1CF50141
S11318A08080918016FF03C06F2D70E002C06FEF3F
S11318B07FEFC4010E94750D6C011068510113FD86
S11318C01CC006C080E290E0B3010E948B0DEA9434
S11318D08E2D90E0C816D906A8F30FC0F40117FDA9
S11318E0859117FF81914F0190E0B3010E948B0D08
S11318F0E110EA940894C108D108C114D10471F725
S1131900E7C0843611F0893651F5F50117FF07C099
S113191080819181A281B38124E030E008C080817C
S11319209181AA2797FDA095BA2F22E030E0A20E5C
S1131930B31E012F0F76B7FF08C0B095A095909500
S113194081959F4FAF4FBF4F0068BC01CD01A201ED
S11319502AE030E00E94B70DD82ED4183FC0853756
S113196021F41F7E2AE030E020C0197F8F36A9F0D1
S1131970803720F4883509F0AEC00BC0803721F0E1
S1131980883709F0A8C001C0106114FF09C01460B1
S113199007C014FF08C0166006C028E030E005C088
S11319A020E130E002C020E132E0F50117FF07C07A
S11319B0608171818281938144E050E006C060813E
S11319C0718180E090E042E050E0A40EB51EA201D7
S11319D00E94B70DD82ED418012F0F7706FF09C027
S11319E00E7FDF1430F404FF06C002FD04C00F7E36
S11319F002C01D2D01C01F2D802F90E004FF0CC0DC
S1131A00FE01ED0DF11D2081203311F4097E09C082
S1131A1002FF06C01E5F05C086789070009709F02B
S1131A201F5F802E992403FD12C000FF0DC0FD2C02
S1131A301E1550F4FE0CF11A1E2D06C080E290E033
S1131A40B3010E948B0D1F5F1E15C0F304C01E1549
S1131A5010F4E11A01C0EE2484FE0FC080E390E08C
S1131A60B3010E948B0D82FE1FC081FE03C088E576
S1131A7090E010C088E790E00DC0C40186789070B3
S1131A80009791F081FC02C080E201C08BE207FD67
S1131A908DE290E0B3010E948B0D06C080E390E0DC
S1131AA0B3010E948B0DFA94DF14C0F3DA94F201AF
S1131AB0ED0DF11D808190E0B3010E948B0DDD20BE
S1131AC0A9F706C080E290E0B3010E948B0DEA946E
S1131AD0EE20C1F740CEF3018681978102C08FEFDB
S1131AE09FEF2D96E2E10C94310EFC0105906150BC
S1131AF070400110D8F7809590958E0F9F1F089520
S1131B00FC016150704001900110D8F780959095C8
S1131B108E0F9F1F08950F931F93CF93DF938C0114
S1131B20EB018B8181FF1BC082FF0DC02E813F81A1
S1131B308C819D812817390764F4E881F981019328
S1131B40F983E88306C0E885F985802F0995009715
S1131B5031F48E819F8101969F838E8302C00FEFA3
S1131B601FEFC801DF91CF911F910F910895FA01E2
S1131B70AA27283051F1203181F1E8946F936E7FC8
S1131B806E5F7F4F8F4F9F4FAF4FB1E03ED0B4E0B9
S1131B903CD0670F781F891F9A1FA11D680F791FFA
S1131BA08A1F911DA11D6A0F711D811D911DA11D0B
S1131BB020D009F468943F912AE0269F112430191B
S1131BC0305D3193DEF6CF010895462F4770405DB6
S1131BD04193B3E00FD0C9F7F6CF462F4F70405D65
S1131BE04A3318F0495D31FD4052419302D0A9F7C0
S1131BF0EACFB4E0A6959795879577956795BA95BA
S1131C00C9F700976105710508959B01AC010A2E7F
S1131C1006945795479537952795BA95C9F7620F56
S1131C20731F841F951FA01D08952F923F924F92FA
S1131C305F926F927F928F929F92AF92BF92CF9258
S1131C40DF92EF92FF920F931F93CF93DF93CDB761
S1131C50DEB7CA1BDB0B0FB6F894DEBF0FBECDBFD9
S1131C6009942A88398848885F846E847D848C84AA
S1131C709B84AA84B984C884DF80EE80FD800C81B3
S1131C801B81AA81B981CE0FD11D0FB6F894DEBF96
S10F1C900FBECDBFED010895F894FFCF06
S1131C9C4469766973696F6E204552524F522F30E6
S1131CAC00232052657365740057454C434F4D45D2
S1131CBC2100202B2D2F2A43414C434F4C41544F90
S1131CCC5220000708092F0405062A0102032D23BC
S10D1CDC003D2B256400256600007E
S9030000FC
